:020000040000FA
:1000000020130020B1010000CB010000CD01000051
:1000100000000000000000000000000000000000E0
:10002000000000000000000000000000CF01000000
:100030000000000000000000D1010000D30100001A
:10004000D5010000D5010000F105000029050000E0
:100050003D05000000000000D5010000D5010000B2
:10006000D5010000D5010000D5010000D501000038
:10007000D5010000D5010000D5010000D501000028
:10008000D5010000D5010000D5010000D501000018
:10009000D5010000D5010000D5010000D501000008
:1000A000D5010000D50100000000000000000000A4
:1000B0000000000000000000000000000000000040
:1000C00000F002F800F048F80CA030C808382418F6
:1000D0002D18A246671EAB4654465D46AC4201D180
:1000E00000F03AF87E460F3E0FCCB646012633426A
:1000F00000D0FB1AA246AB46334318470C1600004B
:100100002C160000103A02D378C878C1FAD85207EA
:1001100001D330C830C101D504680C6070470000BD
:100120000023002400250026103A01D378C1FBD813
:10013000520700D330C100D50B60704710B5782945
:1001400002D100F0A3F810BD002010BD1FB5C046BD
:10015000C0461FBD10B510BD00F050F91146FFF7A5
:10016000F5FF00F011FC00F068F903B4FFF7F2FFAF
:1001700003BC00F06DF9000070B505460C4616464C
:1001800002E00FCC0FC5103E102EFAD2082E02D37B
:1001900003CC03C5083E042E07D301CC01C5361F8E
:1001A00003E021782970641C6D1C761EF9D270BDA5
:1001B00003210C4802680A4302600B4802680A43A4
:1001C00002600A4880470A480047FEE7FEE7FEE76C
:1001D000FEE7FEE7FEE7000006480749074A084B2E
:1001E0007047000024050040540500405105000000
:1001F000C10000002003002020130020200B00205D
:10020000200B00200FB4054910B503AA029800F096
:10021000C5F810BC08BC04B018470000140000204A
:10022000F8B50E460446002020622046E168884763
:10023000002829D0252802D06268A16820E0E16862
:1002400020460027884705001ED028464138192837
:1002500002D80127FF022035324620462760294672
:10026000FFF76CFF002808D0012804D0F61DF6081F
:10027000F6000836D9E7361DD7E762682846A16838
:100280009047206A401CCFE7206AF8BD70B504464D
:100290000D4621461068C046C0462188090502D592
:1002A0000F4A7A4402E00E4A7A440E322346002175
:1002B000243305E00607360F965D5E54491C00099D
:1002C0000028F7D120780023000705D5702D03D032
:1002D000002901D011320223204600F006F870BD3B
:1002E0003A140000704770477047FFB504460D464A
:1002F00081B0243000902168880604D51022E0697E
:100300009143216000E00120A84201DD471B00E08D
:1003100000270498A1697A191018081AA06120789A
:10032000C00602D42046C046C046002608E0039816
:100330006268A168805D9047206A401C761C20623C
:1003400004988642F3DB2078C0060AD52046C046D2
:10035000C04606E06268A16830209047206A401CD1
:10036000206238467F1E0028F4DC07E000986268AF
:10037000A168405D9047206A401C206228466D1E9F
:100380000028F3DC2046C046C0462078000602D58F
:10039000022005B0F0BD0120FBE70000084B70B55E
:1003A0000D467B4400F013F80446284600F022F87E
:1003B000002802D00020C04370BD204670BD000060
:1003C000E104000001694A1C02610878704700B529
:1003D0008FB0029100210591054901937944039161
:1003E000114604906846FFF71BFF0FB000BD0000E8
:1003F000E5FFFFFFC068802108407047754600F0A8
:1004000023F8AE46050069465346C008C00085463D
:1004100018B020B5FFF7E0FE60BC00274908B646DB
:100420000026C0C5C0C5C0C5C0C5C0C5C0C5C0C503
:10043000C0C5403D49008D4670470446C046C04691
:100440002046FFF792FE000000487047BC020020E3
:1004500001491820ABBEFEE726000200704710B528
:100460000421232000F08EFDC721084002463032CF
:100470000421232001F0EAF8002010BD10B504216A
:10048000232000F07FFDC208D200521C042123204B
:1004900001F0DCF8002010BD10B500220C21232053
:1004A00001F0D4F800220D21232001F0CFF8002222
:1004B0000E21232001F0CAF810BD10B51E2000F057
:1004C000FBFC002000F0F8FC012000F0F5FC02200D
:1004D00000F0F2FC10BD70B51C4615460E46002813
:1004E00003D0022000F00CFD02E0022000F0F8FC36
:1004F000002E03D0012000F003FD02E0012000F0F7
:10050000EFFC002D03D0002000F0FAFC02E00020F8
:1005100000F0E6FC002C03D01E2000F0F1FC70BDC2
:100520001E2000F0DDFC70BD10B50249024800F04D
:10053000B1F910BD300200200030004010B5024972
:10054000024800F0A7F910BD58020020004000400A
:1005500010B500F0F5F9002805D01F491D48486086
:10056000C8131E4988611E48018CC9B201290BD1EC
:10057000828C120708D1028D1206120F042A03D1B1
:10058000828D1206120F0AD0012921D1818C090710
:100590001ED1018D0906090F0A2904D007E0114A6E
:1005A00001219160F5E7828D1206120F05D00D2909
:1005B0000ED1808D0006000F0AD10B480168012979
:1005C00004D00A49016001680129FCD1C0214161C0
:1005D00010BD0000DFFF07C000050040006C0040B8
:1005E000C00F00F00006004000EC064075930000CC
:1005F00010B50249024800F097FF10BD80020020AC
:1006000000200040BFF34F8F04490348C860BFF388
:100610004F8F00BFFDE700000400FA0500ED00E089
:100620000EB50021029000916A4601910148FFF742
:10063000E9FF0EBD0140000010B58268C3689A1A38
:1006400003D000F00DF9002010BD052010BD0029D9
:1006500006D0002A02D0531E134203D0092070474F
:100660000E2070470160838000218160C1600846D0
:10067000704710B58268C3689A1A83889A4203D873
:1006800000F0F8F8002010BD042010BDF0B5274E92
:1006900089B01F460D00044672601CD0A8882968E6
:1006A00082B22348FFF7D3FF002815D1A889A96893
:1006B00082B21F481030FFF7CAFF00280CD1202259
:1006C0001C496846FFF758FD60690690207C0028A9
:1006D00004D0012103E0072009B0F0BD00216846E5
:1006E00001750777607C002800D00E2069464875A8
:1006F000E0680290A0680390206801906068009014
:100700000A480D4A083000F059FA0028E4D1B070C8
:100710002068401CE0D00548083000F0BDFA0349CD
:100720000122491CC81D00F089FAD5E70400002009
:100730009C020020C01600008114000010B5014684
:100740000C48FFF796FF040012D10B4800F06EFB37
:1007500000280DD1084907480839FFF76DFF002828
:1007600006D1054901220839034800F0FFFA044682
:10077000204610BDAC0200200C00002070B50546DC
:1007800008680C46411C04D000F0CAFB206800F049
:100790009DFB6068411C02D0002100F084FB2968A9
:1007A000052212028918A0694862607D227D2968AD
:1007B0001043152292018918C8626268216828686E
:1007C00000F0DAFB207D012812D1A068411C02D084
:1007D000002100F068FBE068411C04D000F0A0FBA1
:1007E000E06800F073FBA268E168286800F0B6FBDF
:1007F00070BD000000B58BB018220D496846FFF7A8
:10080000BBFCFF2101310B4806904018079109916C
:1008100008900323084A06A96846FFF737FF002817
:1008200001D0FFF7FDFE05A0FFF7ECFC0BB000BD0B
:100830009C160000300000206B1400000D0A55418A
:10084000525420776F726B730D0A000010B50321AC
:10085000084600F01FFB0321052000F01BFB10BD24
:10086000826883881A4003689A5C0A708168491C10
:1008700081607047C26883881A4003689954C168D0
:10088000491CC160704710B50446C0B2FFF756FF5F
:10089000204610BDF0B50C460D462035074685B004
:1008A000697828780191009022462632D11E384678
:1008B000E36900F0A8FC002819D1E87800281ED1CF
:1008C000207B022801D0032819D12269E1699142D5
:1008D00015D16269E261E37B2B70217E8906C90F25
:1008E0006970032805D03946204600F027FC05B082
:1008F000F0BD00913946204600F00AFDF7E7E068B8
:100900006269216901AB07C3E878002600280CD092
:10091000384600F00DFB810701D5012002E04007B9
:1009200005D502206946087001E0684606702E7100
:10093000207E4007DBD42268684661689047D6E78E
:100940001048018CC9B2012917D1818C090714D133
:10095000018D09060A0F03D1828D1206120F0ED0E7
:10096000090F012903D1828D1206120F07D0032926
:1009700003D1808D0006000F01D0002070470120B8
:1009800070470000C00F00F0FFF797FD01231A46E3
:1009900019461846FFF79FFDFFF72CFF00F0A8FB54
:1009A0007D24E400204600F01BF800F02DFBFFF74B
:1009B0004DFFFFF771FDFFF752FDFFF75FFD0E20C2
:1009C00000F07AFA0E2000F09BFA204600F008F8BA
:1009D0000E2000F085FA204600F002F8F2E7000051
:1009E0007D21C900484300280FD00849084A0968FA
:1009F00000BF00BF00BF00BF00BF00BF00BF00BFFF
:100A0000914200D000BF0138F2D1704700000020B1
:100A10000024F40000280FD00849094A096800BFE3
:100A200000BF00BF00BF00BF00BF00BF00BF9142BA
:100A300000D000BF0138F2D1704700000000002054
:100A40000024F4008207D30EFF229A408907090E82
:100A500010B5994000280BDA03071B0F083B9C08D0
:100A60000C4BA400E318DC6994430C43DC6107E001
:100A70008408094BA400E418236893430B432360C4
:100A8000C106C90E01208840044908600449086075
:100A900010BD000000ED00E000E400E080E200E0B6
:100AA00000E100E0017928225143054A00688918D5
:100AB00005221302C018026002202031887070479E
:100AC00030020020F8B507460C460079282148433B
:100AD0001B4945182E462036B078002801D0082042
:100AE000F8BD6B6000202A60A86070713071A07B37
:100AF000F071607B002802D0204600F0AFFA206839
:100B00001049820010481218116062689200101893
:100B10000160386805231B02C01862682168816083
:100B2000C260A16841622868002805D03868217B2E
:100B3000000B40B2FFF786FF0120B0700020F8BD27
:100B4000300200200C060000000700503EB5074DA3
:100B50002C68AD68009402956C466170A370019298
:100B60000022694600F016F83EBD0000B4160000F1
:100B70003EB50025069C009502956D466970AB70E8
:100B80000192002C01D0202200E00022294600F032
:100B900001F83EBD70B50D46017928235943064B37
:100BA000CC18910701D0062070BD134601682A4673
:100BB000204600F0F9FB70BD30020020F8B5064673
:100BC0000F4600791C2148431A4915464418E07E17
:100BD000002801D00820F8BD39463046FFF7CEFD89
:100BE00065603869206028460025002813D0FF2260
:100BF0003068397F1D328550FF223068453285507C
:100C0000032330681B020C4AC01842603068000B96
:100C100040B2FFF717FF0522306804211202801846
:100C20000160E5752576A5750121E1762846A57652
:100C3000F8BD00008002002080000200F8B50379B2
:100C40001C246343134C81251C1903276668002369
:100C5000AD003F02002E02D00668F619B560E67DB1
:100C6000002E0ED0237E002B07D06168002902D011
:100C70000068C01945601120F8BD2161012322766A
:100C800004E0E2750025E1606576257600F01AF84B
:100C9000F8BD00008002002070B5044600791C21D8
:100CA000074D48434019807E002808D1204600F0B7
:100CB0009EF920791C22012150434019817670BD94
:100CC00080020020F8B5044600791C2148432649DB
:100CD0004518A87E184302D1204600F088F96868BC
:100CE000002808D081210322206889001202801880
:100CF00041600020F8BDFF204530216800220A50E5
:100D0000FF212531206800F024F90646FF21093132
:100D1000206800F01EF90090FF214531206800F0A6
:100D200018F90746009838433043E9D03046384335
:100D300007D12946206800F03DF9E87D697E8842A8
:100D4000DED80020E875002E01D00320F8BD002F6A
:100D500001D00F20F8BDA97E01200029216801D013
:100D60000860C6E74860C4E78002002070B5054609
:100D70000C4600791C21484308494318284600F0D6
:100D800055F8002801D0112070BD9A7500209C6094
:100D90009882284600F004F870BD00008002002010
:100DA000F8B5044600791C2148431F490026451820
:100DB000FF2720681D37C651206801218160294620
:100DC000206800F037FB6968002913D029E0FF276D
:100DD0000137FF211D31206800F0BBF8002802D147
:100DE000A88AB842F5D1A88AB84203D0294620681B
:100DF00000F020FBA88AA97D8842E8D3A98AC81FF1
:100E0000F93801D10F260AE0FF271D37394620683F
:100E100000F09FF80028F9D020680121C16000206F
:100E2000A8753046F8BD00008002002000791C2122
:100E3000484303494018807D002800D001207047B6
:100E40008002002070B552000A439900049D0A43B5
:100E50002902059E0A43310405240A432407800021
:100E60000721001909024018026070BD70B55200D8
:100E70000A439900049D0A432902059E0A4331044E
:100E800005240A432407800007210019090240189D
:100E9000026070BD1CB500220B4600921146019203
:100EA000FFF7D0FF1CBD1CB500220B460092114677
:100EB0000192FFF7DBFF1CBD1CB5002100910B4622
:100EC000012201911146FFF7BDFF1CBD1CB5002199
:100ED00000910B46012201911146FFF7C7FF1CBD8F
:100EE000012181400148C1607047000000050050A9
:100EF000012181400148C160704700000005005099
:100F000001218140014881607047000000050050C8
:100F100001218140014881607047000000050050B8
:100F200001218140014881607047000000050050A8
:100F300013218901411848684860704740580028CB
:100F400000D0012070470921C901411808680860D4
:100F500070474058002800D00120704705231B022D
:100F6000C018816002617047032212028018406835
:100F7000084000D00120704705231B02C0184261C1
:100F8000C16070473EB504466846017101200346C2
:100F9000009001AA21460648FFF7EAFD012302AAB4
:100FA00021460348FFF7D2FD6846007A3EBD0000A7
:100FB0006C16000030B5FF220523CD7D00240932D8
:100FC0001B02C318002D8450986905D04B7ECA6857
:100FD000D054487E401C487630BD1FB501246B4676
:100FE0001C701972019206C8684690471FBDFF2306
:100FF000253302680021D150FF2302680933D15004
:10100000006801210160704738B5012401236A4658
:1010100021460748FFF79AFD002803D1214605A085
:10102000FFF7F0F8641CE4B27F2CEFD938BD000064
:101030006C16000054574920646576696365206426
:1010400065746563746564206174206164647265AD
:10105000737320307825782E0D0A000070B5044691
:101060002168214D89001F4849190860616889007D
:10107000491908602068FFF74BFF6068FFF748FFD9
:1010800018482168401C8900491908606168890076
:10109000491908600420FFF7BDFC144E0025217992
:1010A0003069C840C007C00F02D0002D18D00EE034
:1010B0002068FFF71DFF0420FFF7ACFC2068FFF756
:1010C00027FF0420FFF7A6FC6D1C092DE7DB6068F5
:1010D000FFF70EFF0420FFF79DFC6068FFF718FF85
:1010E00070BD00000C060000000700500005005015
:1010F0001FB5094B6C4610330FCB0FC400231A46A3
:1011000069460548FFF7DEFC002801D0FFF788FAA2
:101110000148FFF7C7FC1FBD6C1600000146032005
:10112000CA0701D0412040028A0700D5024849077A
:1011300001D50148401C704701820000FFB50C46F4
:1011400085B000210491FF21053100261F4666501D
:10115000FF2125316650FF211D316650FF210931E5
:10116000665005462035E11DFF31AE71FA31EE7053
:10117000012F0FD001220A60012121622160016844
:10118000002909D013498160806803210902611890
:1011900048601BE00222EEE701462631233003912E
:1011A0000290009701962046079B039A029900F04F
:1011B0002AF80028F5D1E878002807D02046FFF764
:1011C000B7FE002802D0FFF7A9FF0490049809B0E9
:1011D000F0BD00008602000030B51C78039D9442EB
:1011E00008D205221202095D8018C1611878401CDE
:1011F000187006E00121002D02D0C161002030BD31
:101200004161012030BDFFB50F46097883B0044627
:10121000002904D1059802780C98824201D101205E
:1012200000E000200190FF2025300025002907D094
:101230002550FF201D302550FF200930255055E056
:10124000FF2125312046FFF779FE012600282CD109
:10125000FF211D312046FFF771FE002814D0FF202A
:101260001D302550FF2125312046FFF767FE00285D
:101270001BD10D9800902046059B0C9A0699FFF70C
:10128000ABFF00283FD031E0FF2109312046FFF7B6
:1012900055FE00282AD0FF2009302550FF21253196
:1012A0002046FFF74BFE002805D0FF2025302550B3
:1012B00066613E701AE005990C980F78069ABC4654
:1012C000874213D205231B02E3189B696746D35557
:1012D0000A78521CD2B20A70411E8A4203D10221FE
:1012E0000802015101E0824200D0266201980028E4
:1012F0000BD0FF26053631462046FFF71FFE00289B
:1013000003D0A551002007B0F0BD0120FBE700008D
:10131000FFB5054687B00C460020FF21109F053120
:1013200005906050FF2125316050FF211D31605034
:10133000FF2109316050012149022E460851203613
:10134000B071F07001202062A060B31D009702937D
:1013500020460A9A0999FFF73FFF2868002807D01E
:101360001048A860A868032109026118486016E0C7
:1013700023350A980090019729462046099B029A36
:10138000FFF741FF0028F4D1F078002807D020466D
:10139000FFF7CEFD002802D0FFF7C0FE05900598AC
:1013A0000BB0F0BD86020000F8B50446002003250E
:1013B000C0432D024E19B0602546203528790028FB
:1013C00003D0A06870601120F8BD5807C017401CFA
:1013D0002871180701D50620F8BDA3611046C1C8C1
:1013E00067612661E0609078287050680B26E061A4
:1013F000F60150788E19B0601078002601280ED0C2
:10140000002801D1980601D5012000E00020687075
:101410000090937852682046FFF77AFF05E06E70DF
:10142000937852682046FFF789FE21680029D3D1BE
:101430002E71F8BDFF221D32002383508B8A8A68EB
:10144000D25C8B8A5B1C8B82052109024018C26129
:1014500070471FB500226B461A701972816801919E
:10146000827506C8684690471FBD10B501780229ED
:1014700001D0012902D14068FFF7D2F810BD000069
:101480007CB50178264D002934D001290CD00229E1
:101490002DD16A461170C068691C01900122C81DD7
:1014A000FFF7CCFB684630E0406801781D48FFF745
:1014B000E0F801261B4C002803D069460E7001900D
:1014C00006E0A068E168081A05D0002069460870A7
:1014D000084669688847A068E168081AA1888842B8
:1014E00006D80F490122491CC81DFFF7A7FB7CBD88
:1014F000AE707CBD0B480A491030FFF79DF80028FC
:1015000006D00320694608706846696888477CBD34
:101510000349012208460830FFF728FC7CBD000083
:10152000040000209C020020F0B50C46012185B08B
:1015300005464902FFF718FD032109026F1800262E
:10154000002824D0FF2125312846FFF702FD00287E
:101550001DD0FF2025302E5081208000B860A07E55
:10156000002801D1012068600221684601702846E8
:10157000FFF7E9FC0390E17D68460172E0680190A5
:10158000E675267662686846216890472DE004215A
:101590002846FFF7E9FC002827D0FF21093128461B
:1015A000FFF7D7FC002820D021462846FFF702FD90
:1015B000E07D617E884218D1207E002807D0617EC0
:1015C000E268E0752069E060267666760AE0A07E33
:1015D000002801D10120686081208000B860E67594
:1015E000617EE2682046FFF7F8FCFF271D37394689
:1015F0002846FFF7AEFC00280FD0A08AA17D8842C4
:1016000004D221462846FFF715FF06E0EE51A17DE2
:10161000002902D02046FFF71CFFFF274537394637
:101620002846FFF796FC00280ED0EE51A07E002839
:1016300001D001202860E07D002805D0E675617E9C
:10164000E2682046FFF7C9FC05B0F0BD1CB56B464B
:1016500019715A71002100910146022301AA024822
:10166000FFF786FA1CBD00006C1600000030004039
:1016700000000000004000400100000010000000D9
:101680000F0000000000980101000000120000009F
:101690001100000000009801010000000900000096
:1016A0000A0000000C0000000B0000000100000018
:1016B00000502700010000000000000000000000B2
:1016C000FFFFFFFFFFFFFFFFFFFFFFFFFFFFFFFF2A
:1016D000000000000000000000E0D701030000004F
:1016E0003031323334353637383941424344454658
:1016F0004030580030313233343536373839616252
:101700006364656640307800281700000000002000
:10171000180000000401000040170000180000201D
:1017200008130000200100000024F4000000000065
:101730000000000000200040000000000000000049
:04000005000000C136
:00000001FF
