:020000040000FA
:1000000020130020B9010000D3010000D501000039
:1000100000000000000000000000000000000000E0
:10002000000000000000000000000000D7010000F8
:100030000000000000000000D9010000DB0100000A
:10004000DD010000DD0100003D0D0000750C000029
:10005000890C000000000000DD010000DD0100004F
:10006000DD010000DD010000DD010000DD01000018
:10007000DD010000DD010000DD010000DD01000008
:10008000DD010000DD010000DD010000DD010000F8
:10009000DD010000DD010000DD010000DD010000E8
:1000A000DD010000DD010000000000000000000094
:1000B0000000000000000000000000000000000040
:1000C00000F002F800F04DF80CA030C808382418F1
:1000D0002D18A246671EAB4654465D46AC4201D180
:1000E00000F03FF87E460F3E0FCCB6460126334265
:1000F00000D0FB1AA246AB4633431847441E00000B
:10010000641E0000103A02D378C878C1FAD85207AA
:1001100001D330C830C101D504680C6070470000BD
:100120000023002400250026103A01D378C1FBD813
:10013000520700D330C100D50B60704710B5642959
:1001400002D100F0A7F810BD782902D100F0D8F84C
:1001500010BD002010BD1FB5C046C0461FBD10B564
:1001600010BD00F021FC1146FFF7F5FF00F0A8FFDD
:1001700000F039FC03B4FFF7F2FF03BC00F03EFCD3
:1001800070B505460C46164602E00FCC0FC5103E72
:10019000102EFAD2082E02D303CC03C5083E042E3B
:1001A00007D301CC01C5361F03E021782970641CF8
:1001B0006D1C761EF9D270BD03210C4802680A43FB
:1001C00002600B4802680A4302600A4880470A48F6
:1001D0000047FEE7FEE7FEE7FEE7FEE7FEE700007A
:1001E00006480749074A084B7047000024050040AD
:1001F000540500409D0C0000C100000020030020B9
:1002000020130020200B0020200B00200FB40549F4
:1002100010B503AA029800F083FB10BC08BC04B020
:100220001847000014000020F8B50E4604460020D0
:1002300020622046E1688847002829D0252802D07E
:100240006268A16820E0E168204600278847050031
:100250001ED028464138192802D80127FF02203530
:100260003246204627602946FFF768FF002808D05D
:10027000012804D0F61DF608F6000836D9E7361D29
:10028000D7E762682846A1689047206A401CCFE7FC
:10029000206AF8BDF7B5002575291068009914A6E5
:1002A00011D0C046C046002802DA404211A608E03C
:1002B000009909688A0701D50FA602E0490704D50D
:1002C0000EA6012501E0C046C046009F0024243749
:1002D00004E000F039FB30313955641C0028F8D1B6
:1002E0002B4632462146009800F0C2FAFEBD0000BF
:1002F000000000002D0000002B0000002000000086
:1003000070B504460D4621461068C046C046218897
:10031000090502D50F4A7A4402E00E4A7A440E32A9
:1003200023460021243305E00607360F965D5E5410
:10033000491C00090028F7D120780023000705D5C3
:10034000702D03D0002901D011320223204600F085
:100350008FFA70BD7E1B0000704770477047000029
:10036000F0B51FB4FA4F0E091D09BC463E403D4092
:100370000C46B7435C408CB0002F7DD06746AF433E
:10038000FBD0002D79D0002EFCD0E20F3243521B5F
:10039000FF24A40412190892420DCD02C7020E9840
:1003A0001543420DD9021143C202600305430143C4
:1003B000080C0195150CAC4605040B46AB430A9599
:1003C00065462D04AA430995E24D040A7D4464194B
:1003D000803C257806466E4301247619E405A61B69
:1003E0007543ED0CAD1C490B69434919A401611A11
:1003F0000E0CB6463604B143694376466E43090C8B
:10040000711889090591F90700D0A100049101999B
:100410007F08CC0727434C08059DE10B4D432D0C6D
:1004200029466646754302950D4645432E46029D74
:100430007D1BB44100950D465D4301942C0C2F04A7
:100440000D465543AE462D0C3D430295039475462B
:10045000049C2D04641B049406D2029C039D641C1E
:10046000002675410395029401AC70CC009F7D1B62
:10047000B4410904009501E03BE15FE1079101947B
:100480000599A4086143090C0C464443650BE70435
:1004900064464C43A646640B3C4303950294744661
:1004A000049DE4042C1B049406D2029C039D641C4E
:1004B000002675410395029401AC70CC009F7D1B12
:1004C000B44101940C465C430095650FE7000C466F
:1004D0005443A646640F3C43039502947446049D1E
:1004E000E4002C1B049406D2029C039D641C00268D
:1004F00075410395029401AC70CC009F7D1BB44103
:10050000AE09AF06049DC900AD092F43049DA406A2
:10051000AD060495079D344369180791059DE10BCD
:100520004D432D0C29466646754302950D464543BD
:100530002E46029D7D1BB44100950D465D430194FE
:100540002C0C2F040D465543AE462D0C3D43029511
:1005500003947546049C2D04641B049406D2029CEB
:10056000039D641C002675410395029401AC70CC78
:10057000009F7D1BB44101948C050694079C890A59
:10058000611800950791019C0599A4086143090C25
:100590000D464543680BEF040D46644665436C0BFE
:1005A0003C43049FED047D1BAC4602D20025641C35
:1005B0006841009E019D371B8541084658430195BF
:1005C0000C46460FC5005443600F28436546E400BF
:1005D0002C1B02D20025401C6E41019D3F1AB541E3
:1005E0002846BD09800628438446A009BF064E025E
:1005F0000699A40676180743079D002068410A99CA
:10060000079019430020099B00906046FF1913438F
:100610004041E20F64003A43A4460446D71A8C4195
:10062000A04203D90120009020463A46C70F9418F3
:1006300040416246D20F2243644664000494009C09
:10064000BE466400D71AA446044602978C417746FA
:10065000002F01D1A04204D96046401C8446029A72
:100660002046C40FA64694184041049A0546D20F6E
:10067000224364466400D31A8D417146002901D19A
:10068000A84202D9641C28461A46104301220028B9
:1006900000D0164361020020079B044689195C4183
:1006A0000223002C02DB491813466441089DCE0A40
:1006B0002D145D194B056705E10A2C050C190899E5
:1006C0003E43C9076140002B08D0934006D3002267
:1006D000761C5141002B01D1760876001E4A002C71
:1006E00045DB2346134242D0A24340D0304611B0EE
:1006F000F0BD0E4607184E41184D7A42B5411AD347
:100700000E9A1D4696185D41144A7642AA4112D3AC
:10071000012252054D00D5420AD15C00D4420AD0D4
:100720004B4002D592021143E1E749004908DEE758
:10073000E10FC9070AE000200949D8E7064801424D
:1007400012D0084821460143C01241400020CEE7A4
:100750000000FF07F01A00000000F07F0000E0FF3B
:100760000000F87FFFFFFF7F0342E4D0E0E70123B2
:10077000089A9B069A4205DC032252078918C90F82
:10078000C907B4E7052252078918074A1143D21254
:100790005140ACE75940504010B54B4042405940A1
:1007A0005040FFF7DDFD10BDFFFFFF7F30B5034672
:1007B000CA02400D1043154D154C0A1502D02043B6
:1007C000002A06DBAA1A002A12DDD040FF2A0BDC21
:1007D00030BD5205520D01D140004008AA1A07D47D
:1007E000D0404042FF2A01DD002030BD0028FCDD62
:1007F0004A00002B01D0012000E000201018054A1B
:100800009042F1D8C817C043604030BD1E040000BC
:10081000000000800000E0FF1F22030C02D10F2225
:10082000000402D0030E03D004E00020014670470C
:10083000083A0002030F01D1121F0001830F01D1FA
:10084000921E8000002801DB521E40001205511844
:100850004205C012411810467047C10FC90700D0A9
:100860004042012292071143D6E701218907D3E7CD
:10087000FFB504460D4681B02430009021688806FB
:1008800004D51022E0699143216000E00120A842D4
:1008900001DD471B00E000270498A1697A191018B0
:1008A000081AA0612078C00602D42046C046C0467F
:1008B000002608E003986268A168805D9047206A7E
:1008C000401C761C206204988642F3DB2078C00628
:1008D0000AD52046C046C04606E06268A1683020BE
:1008E0009047206A401C206238467F1E0028F4DCB6
:1008F00007E000986268A168405D9047206A401C4C
:10090000206228466D1E0028F3DC2046C046C04603
:100910002078000602D5022005B0F0BD0120FBE7DB
:10092000084B70B50D467B4400F027F80446284676
:1009300000F036F8002802D00020C04370BD2046E9
:1009400070BD00009506000001468008081A0209E3
:100950001018020A1018020C1018C0088200121891
:100960005200891A01E00A39401C0A29FBD270475B
:1009700001694A1C02610878704700B58FB0029186
:100980000021059105490193794403911146049092
:100990006846FFF749FC0FB000BD0000E5FFFFFF10
:1009A000C068802108407047754600F023F8AE46C5
:1009B000050069465346C008C000854618B020B5FA
:1009C000FFF70EFC60BC00274908B6460026C0C5EC
:1009D000C0C5C0C5C0C5C0C5C0C5C0C5C0C5403DF7
:1009E00049008D4670470446C046C0462046FFF782
:1009F000C1FB000000487047BC02002001491820DC
:100A0000ABBEFEE726000200704710B5042123208C
:100A100000F06CFEC721084002463032042123203A
:100A200001F0F0F9002010BD10B50421232000F0E2
:100A30005DFEC208D200521D0421232001F0E2F91C
:100A4000002010BD10B500220C21232001F0DAF99E
:100A500000220D21232001F0D5F900220E212320B0
:100A600001F0D0F910BD10B500220C21222001F0B8
:100A7000C9F900220D21222001F0C4F900220E2123
:100A8000222001F0BFF910BD10B51E2000F0AFFD0F
:100A9000002000F0ACFD012000F0A9FD022000F0D4
:100AA000A6FD10BD70B51C4615460E46002803D0A5
:100AB000022000F0C1FD02E0022000F0ADFD002E9A
:100AC00003D0012000F0B8FD02E0012000F0A4FDF9
:100AD000002D03D0002000F0AFFD02E0002000F068
:100AE0009BFD002C03D01E2000F0A6FD70BD1E2033
:100AF00000F092FD70BD0000F0B587B00821102015
:100B000000F0DCFD64214843FFF7AFFE0022344BC8
:100B1000FFF726FC074604910921102000F0CEFDC6
:100B200064214843FFF7A1FE00222E4BFFF718FC7B
:100B3000064603910A21102000F0C0FD64214843BD
:100B4000FFF793FE0022284BFFF70AFC04460D46F0
:100B50000B21102000F0B2FDFFF787FE0591049BEA
:100B600003990690009138461946FFF71FFE029040
:100B700020462946FFF71AFE019030460099FFF7FC
:100B800015FE00903A4619A0049BFFF73FFB324642
:100B90001BA0039BFFF73AFB22462B461DA0FFF745
:100BA00035FB21A0059B069AFFF730FB23A0019B94
:100BB000009A0299FFF72AFB0298FFF74EFE244C99
:100BC000616020600198FFF748FEE160A060009836
:100BD000FFF743FE61612061204607B0F0BD0000D1
:100BE000000058400080524000004C4020207261BC
:100BF00077207265643A20307825640D0A00000081
:100C000072617720677265656E3A20307825640DD1
:100C10000A0000002072617720626C75653A20201E
:100C2000307825640D0A0000726177207768697456
:100C3000653A2020307825640D0A00005247423A78
:100C40002025782025782025780D0A0D0A0000003F
:100C500018000020002310B51A461946102001F094
:100C6000C1F80021102000F029FD002800D001204B
:100C700010BD000010B50249024800F0A7F910BDF0
:100C8000300200200030004010B50249024800F058
:100C90009DF910BD580200200040004010B500F042
:100CA000EBF9002805D01F491D484860C8131E49AC
:100CB00088611E48018CC9B201290BD1828C1207B0
:100CC00008D1028D1206120F042A03D1828D12065A
:100CD000120F0AD0012921D1818C09071ED1018D63
:100CE0000906090F0A2904D007E0114A0121916081
:100CF000F5E7828D1206120F05D00D290ED1808DD9
:100D00000006000F0AD10B480168012904D00A49E6
:100D1000016001680129FCD1C021416110BD0000C2
:100D2000DFFF07C000050040006C0040C00F00F06E
:100D30000006004000EC06407593000010B5024923
:100D4000024800F0BDFF10BD8002002000200040DE
:100D5000BFF34F8F04490348C860BFF34F8F00BFF4
:100D6000FDE700000400FA0500ED00E00EB50021EB
:100D7000029000916A4601910148FFF7E9FF0EBD1C
:100D80000140000010B58268C3689A1A03D000F0D1
:100D900003F9002010BD052010BD002906D0002A4F
:100DA00002D0531E134203D0092070470E20704713
:100DB0000160838000218160C1600846704710B5E2
:100DC0008268C3689A1A83889A4203D800F0EEF8C2
:100DD000002010BD042010BDF0B5274E89B01F467D
:100DE0000D00044672601CD0A888296882B223488E
:100DF000FFF7D3FF002815D1A889A96882B21F4840
:100E00001030FFF7CAFF00280CD120221C49684689
:100E1000FFF7B6F960690690207C002804D0012114
:100E200003E0072009B0F0BD00216846017507778F
:100E3000607C002800D00E2069464875E06802906A
:100E4000A068039020680190606800900A480D4AED
:100E5000083000F06BFA0028E4D1B0702068401C24
:100E6000E0D00548083000F0CFFA03490122491CC0
:100E7000C81D00F09BFAD5E7040000209C0200206A
:100E8000781E0000191C000010B501460C48FFF741
:100E900096FF040012D10B4800F080FB00280DD112
:100EA000084907480839FFF76DFF002806D10549B2
:100EB00001220839034800F011FB0446204610BD0A
:100EC000AC0200200C00002070B5054608680C46F6
:100ED000411C04D000F0C0FB206800F092FB606869
:100EE000411C02D0002100F079FB29680522120282
:100EF0008918A0694862607D227D29681043152207
:100F000092018918C86262682168286800F0D0FBE5
:100F1000207D012812D1A068411C02D0002100F0E0
:100F20005DFBE068411C04D000F096FBE06800F037
:100F300068FBA268E168286800F0ACFB70BD0000A7
:100F400000B58BB018220D496846FFF719F9FF214B
:100F500001310B480690401807910991089003232E
:100F6000084A06A96846FFF737FF002801D0FFF7B7
:100F7000FDFE05A0FFF74AF90BB000BD541E0000AE
:100F800030000020031C00000D0A55415254207708
:100F90006F726B730D0A0000826883881A400368C1
:100FA0009A5C0A708168491C81607047C2688388B6
:100FB0001A4003689954C168491CC160704710B554
:100FC0000446C0B2FFF760FF204610BDF0B50C46E6
:100FD0000D462035074685B0697828780191009044
:100FE00022462632D11E3846E36900F0D8FC00289C
:100FF00019D1E87800281ED1207B022801D00328CF
:1010000019D12269E169914215D16269E261E37BFC
:101010002B70217E8906C90F6970032805D03946D7
:10102000204600F057FC05B0F0BD0091394620463F
:1010300000F03AFDF7E7E0686269216901AB07C398
:10104000E878002600280CD0384600F00DFB810718
:1010500001D5012002E0400705D50220694608704D
:1010600001E0684606702E71207E4007DBD42268BE
:10107000684661689047D6E71048018CC9B20129DB
:1010800017D1818C090714D1018D09060A0F03D1EC
:10109000828D1206120F0ED0090F012903D1828D05
:1010A0001206120F07D0032903D1808D0006000F0E
:1010B00001D000207047012070470000C00F00F0F1
:1010C00070B5FFF7E1FC01231A4619461846FFF7F1
:1010D000E9FCFFF735FF00F0D7FB00F073FB7D2044
:1010E000C00000F035F800F043FBFFF7ABFCFFF762
:1010F0008CFCFFF799FCFFF7B6FC77220421222035
:1011000000F080FE00220521222000F07BFE20223C
:101110000621222000F076FE012300211A4608460F
:10112000FFF7C0FCFFF796FD012300211A46084691
:10113000FFF7B8FC0124054DFFF7DEFCC82000F0E6
:1011400007F8641CAC42F7DB002070BDA0860100EC
:101150007D21C900484300280FD00849084A096882
:1011600000BF00BF00BF00BF00BF00BF00BF00BF87
:10117000914200D000BF0138F2D17047000000203A
:101180000024F40000280FD00849094A096800BF6C
:1011900000BF00BF00BF00BF00BF00BF00BF914243
:1011A00000D000BF0138F2D17047000000000020DD
:1011B0000024F4008207D30EFF229A408907090E0B
:1011C00010B5994000280BDA03071B0F083B9C0859
:1011D0000C4BA400E318DC6994430C43DC6107E08A
:1011E0008408094BA400E418236893430B4323604D
:1011F000C106C90E012088400449086004490860FE
:1012000010BD000000ED00E000E400E080E200E03E
:1012100000E100E0017928225143054A006889185D
:1012200005221302C0180260022020318870704726
:1012300030020020F8B507460C46007928214843C3
:101240001B4945182E462036B078002801D00820CA
:10125000F8BD6B6000202A60A86070713071A07BBF
:10126000F071607B002802D0204600F0C3FA2068AD
:10127000104982001048121811606268920010181C
:101280000160386805231B02C0186268216881600C
:10129000C260A16841622868002805D03868217BB7
:1012A000000B40B2FFF786FF0120B0700020F8BDB0
:1012B000300200200C060000000700503EB5074D2C
:1012C0002C68AD68009402956C466170A370019221
:1012D0000022694600F016F83EBD00006C1E0000BA
:1012E0003EB50025069C009502956D466970AB7071
:1012F0000192002C01D0202200E00022294600F0BB
:1013000001F83EBD70B50D46017928235943064BBF
:10131000CC18910701D0062070BD134601682A46FB
:10132000204600F00DFC70BD30020020F8B50646E6
:101330000F4600791C2148431A4915464418E07E9F
:10134000002801D00820F8BD39463046FFF7BCFD23
:1013500065603869206028460025002813D0FF22E8
:101360003068397F1D328550FF2230684532855004
:10137000032330681B020C4AC01842603068000B1F
:1013800040B2FFF717FF05223068042112028018CF
:101390000160E5752576A5750121E1762846A576DB
:1013A000F8BD00008002002080000200F8B503793B
:1013B0001C246343134C81251C19032766680023F2
:1013C000AD003F02002E02D00668F619B560E67D3A
:1013D000002E0ED0237E002B07D06168002902D09A
:1013E0000068C01945601120F8BD216101232276F3
:1013F00004E0E2750025E1606576257600F01AF8D4
:10140000F8BD00008002002070B5044600791C2160
:10141000074D48434019807E002808D1204600F03F
:101420009AF920791C22012150434019817670BD20
:1014300080020020F8B5044600791C214843264963
:101440004518A87E184302D1204600F084F9686848
:10145000002808D081210322206889001202801808
:1014600041600020F8BDFF204530216800220A506D
:10147000FF212531206800F008F90646FF210931D7
:10148000206800F002F90090FF214531206800F04B
:10149000FCF80746009838433043E9D030463843DB
:1014A00007D12946206800F039F9E87D697E884235
:1014B000DED80020E875002E01D00320F8BD002FF3
:1014C00001D00F20F8BDA97E01200029216801D09C
:1014D0000860C6E74860C4E78002002070B5054692
:1014E0000C4600791C21484308494318284600F05F
:1014F00055F8002801D0112070BD9A7500209C601D
:101500009882284600F004F870BD00008002002098
:10151000F8B5044600791C2148431F4900264518A8
:10152000FF2720681D37C6512068012181602946A8
:10153000206800F04BFB6968002913D029E0FF27E1
:101540000137FF211D31206800F09FF8002802D1EB
:10155000A88AB842F5D1A88AB84203D029462068A3
:1015600000F034FBA88AA97D8842E8D3A98AC81F65
:10157000F93801D10F260AE0FF271D3739462068C8
:1015800000F083F80028F9D020680121C160002014
:10159000A8753046F8BD00008002002000791C21AB
:1015A000484303494018807D002800D0012070473F
:1015B0008002002070B552000A439900049D0A433E
:1015C0002902059E0A43310405240A4324078000AA
:1015D0000721001909024018026070BD1CB50022E5
:1015E0000B46009211460192FFF7E4FF1CBD052255
:1015F0001207800080180722032112028018016060
:1016000070471CB5002100910B4601220191114643
:10161000FFF7D0FF1CBD0000012181400148C160DF
:101620007047000000050050012181400148C16061
:101630007047000000050050012181400148816091
:101640007047000000050050012181400148816081
:101650007047000000050050012181400148816071
:1016600070470000000500501321890141184868A7
:10167000486070474058002800D001207047092179
:10168000C90141180868086070474058002800D018
:101690000120704705231B02C0188160026170475A
:1016A0000322120280184068084000D001207047D1
:1016B00005231B02C0184261C16070473EB5044655
:1016C0006846017101200346009001AA21460648A0
:1016D000FFF706FE022302AA21460348FFF7EEFDAC
:1016E000684600893EBD0000241E00003EB5044649
:1016F0006846017101200346009001AA2146064870
:10170000FFF7EEFD012302AA21460348FFF7D6FDAD
:101710006846007A3EBD0000241E000030B5FF225E
:101720000523CD7D002409321B02C318002D8450EF
:10173000986905D04B7ECA68D054487E401C4876D4
:1017400030BD1FB501246B461C701972019206C88A
:10175000684690471FBDFF23253302680021D15002
:10176000FF2302680933D1500068012101607047EE
:1017700038B5012401236A4621460748FFF79EFD3C
:10178000002803D1214605A0FEF740FD641CE4B209
:101790007F2CEFD938BD0000241E0000545749208B
:1017A0006465766963652064657465637465642047
:1017B0006174206164647265737320307825782EBB
:1017C0000D0A00001FB50A4B6C4620330FCB0FC427
:1017D000074800231A4669460830FFF72BFD00280A
:1017E00001D0FFF7C3FA02480830FFF713FD1FBD11
:1017F000241E000070B504462168214D89001F4851
:101800004919086061688900491908602068FFF774
:101810001BFF6068FFF718FF18482168401C89000B
:101820004919086061688900491908600420FFF7B8
:10183000A9FC144E002521793069C840C007C00FAB
:1018400002D0002D18D00EE02068FFF7EDFE042036
:10185000FFF798FC2068FFF7F7FE0420FFF792FCE3
:101860006D1C092DE7DB6068FFF7DEFE0420FFF743
:1018700089FC6068FFF7E8FE70BD00000C06000000
:1018800000070050000500501FB5094B6C4610338F
:101890000FCB0FC400231A4669460548FFF7CAFC60
:1018A000002801D0FFF762FA0148FFF7B3FC1FBD23
:1018B000241E000001460320CA0701D04120400237
:1018C0008A0700D50248490701D50148401C7047E6
:1018D00001820000FFB50C4685B000210491FF2174
:1018E000053100261F466650FF2125316650FF2135
:1018F0001D316650FF210931665005462035E11D36
:10190000FF31AE71FA31EE70012F0FD001220A6063
:101910000121216221600168002909D013498160F9
:10192000806803210902611848601BE00222EEE78B
:1019300001462631233003910290009701962046FC
:10194000079B039A029900F02AF80028F5D1E8785D
:10195000002807D02046FFF787FE002802D0FFF7B7
:10196000A9FF0490049809B0F0BD000086020000B1
:1019700030B51C78039D944208D205221202095DFD
:101980008018C1611878401C187006E00121002DF4
:1019900002D0C161002030BD4161012030BDFFB5E2
:1019A0000F46097883B00446002904D105980278CF
:1019B0000C98824201D1012000E000200190FF201C
:1019C00025300025002907D02550FF201D30255047
:1019D000FF200930255055E0FF2125312046FFF733
:1019E00049FE012600282CD1FF211D312046FFF79A
:1019F00041FE002814D0FF201D302550FF21253145
:101A00002046FFF737FE00281BD10D980090204696
:101A1000059B0C9A0699FFF7ABFF00283FD031E0F9
:101A2000FF2109312046FFF725FE00282AD0FF209C
:101A300009302550FF2125312046FFF71BFE0028E5
:101A400005D0FF202530255066613E701AE00599CB
:101A50000C980F78069ABC46874213D205231B02C6
:101A6000E3189B696746D3550A78521CD2B20A70B4
:101A7000411E8A4203D102210802015101E0824243
:101A800000D02662019800280BD0FF26053631468B
:101A90002046FFF7EFFD002803D0A551002007B036
:101AA000F0BD0120FBE70000FFB5054687B00C46FE
:101AB0000020FF21109F053105906050FF21253146
:101AC0006050FF211D316050FF210931605001211C
:101AD00049022E4608512036B071F0700120206274
:101AE000A060B31D0097029320460A9A0999FFF758
:101AF0003FFF2868002807D01048A860A868032185
:101B000009026118486016E023350A980090019791
:101B100029462046099B029AFFF741FF0028F4D18D
:101B2000F078002807D02046FFF79EFD002802D05D
:101B3000FFF7C0FE059005980BB0F0BD86020000CF
:101B4000F8B5044600200325C0432D024E19B060AD
:101B5000254620352879002803D0A0687060112020
:101B6000F8BD5807C017401C2871180701D506207A
:101B7000F8BDA3611046C1C867612661E060907836
:101B8000287050680B26E061F60150788E19B0601D
:101B90001078002601280ED0002801D1980601D522
:101BA000012000E000206870009093785268204681
:101BB000FFF77AFF05E06E70937852682046FFF7D2
:101BC00089FE21680029D3D12E71F8BDFF221D3274
:101BD000002383508B8A8A68D25C8B8A5B1C8B8241
:101BE000052109024018C26170471FB500226B46EB
:101BF0001A70197281680191827506C8684690470B
:101C00001FBD10B50178022901D0012902D1406819
:101C1000FFF7ACF810BD00007CB50178264D002917
:101C200034D001290CD002292DD16A461170C06828
:101C3000691C01900122C81DFFF7B8FB684630E01F
:101C4000406801781D48FFF7BAF801261B4C0028B0
:101C500003D069460E70019006E0A068E168081A9A
:101C600005D0002069460870084669688847A06862
:101C7000E168081AA188884206D80F490122491C48
:101C8000C81DFFF793FB7CBDAE707CBD0B480A49B5
:101C90001030FFF777F8002806D003206946087057
:101CA0006846696888477CBD0349012208460830B8
:101CB000FFF714FC7CBD0000040000209C02002003
:101CC000F0B50C46012185B005464902FFF7E8FC56
:101CD000032109026F180026002824D0FF21253196
:101CE0002846FFF7D2FC00281DD0FF2025302E50BB
:101CF00081208000B860A07E002801D101206860AA
:101D00000221684601702846FFF7B9FC0390E17D87
:101D100068460172E0680190E6752676626868465A
:101D2000216890472DE004212846FFF7B9FC0028E0
:101D300027D0FF2109312846FFF7A7FC002820D033
:101D400021462846FFF7EAFCE07D617E884218D1F3
:101D5000207E002807D0617EE268E0752069E0609F
:101D6000267666760AE0A07E002801D10120686010
:101D700081208000B860E675617EE2682046FFF74A
:101D8000E0FCFF271D3739462846FFF77EFC002878
:101D90000FD0A08AA17D884204D221462846FFF7B1
:101DA00015FF06E0EE51A17D002902D02046FFF785
:101DB0001CFFFF27453739462846FFF766FC0028F9
:101DC0000ED0EE51A07E002801D001202860E07DD9
:101DD000002805D0E675617EE2682046FFF7B1FC79
:101DE00005B0F0BD1CB569460A714B710021009128
:101DF0000146022301AA0248FFF772FA1CBD000047
:101E0000241E00001CB56B4619715A710021009107
:101E10000146022301AA0248FFF762FA1CBD000036
:101E2000241E000000300040000000000040004080
:101E300001000000100000000F00000000009801E9
:101E400001000000120000001100000000009801D5
:101E500001000000090000000A0000000C00000062
:101E60000B000000010000000050270001000000EE
:101E70000000000000000000FFFFFFFFFFFFFFFF6A
:101E8000FFFFFFFFFFFFFFFF00000000000000005A
:101E900000E0D701030000003031323334353637EB
:101EA000383941424344454640305800303132339E
:101EB000343536373839616263646566403078009E
:101EC00080807F7E7D7C7B7A797877767675747377
:101ED000727171706F6E6E6D6C6C6B6A6A69686836
:101EE000676666656464636362616160605F5F5ECC
:101EF0005E5D5D5C5C5B5B5A5A5959585857575642
:101F000056555555545453535252525151505050A6
:101F10004F4F4F4E4E4D4D4D4C4C4C4B4B4B4A4AF8
:101F20004A4949494848484747474746464645453C
:101F30004544444444434343434242424241414175
:101F4000601F0000000000201800000004010000D5
:101F5000781F000018000020081300002001000076
:101F60000024F400000000000000000000200040F9
:081F7000000000000000000069
:04000005000000C136
:00000001FF
